{
  "_format": "hh3-artifact-1",
  "contractName": "VNCXMasterAnchor",
  "sourceName": "contracts/VNCXMasterAnchor.sol",
  "abi": [
    {
      "inputs": [],
      "stateMutability": "nonpayable",
      "type": "constructor"
    },
    {
      "inputs": [],
      "name": "ECDSAInvalidSignature",
      "type": "error"
    },
    {
      "inputs": [
        {
          "internalType": "uint256",
          "name": "length",
          "type": "uint256"
        }
      ],
      "name": "ECDSAInvalidSignatureLength",
      "type": "error"
    },
    {
      "inputs": [
        {
          "internalType": "bytes32",
          "name": "s",
          "type": "bytes32"
        }
      ],
      "name": "ECDSAInvalidSignatureS",
      "type": "error"
    },
    {
      "inputs": [],
      "name": "InvalidShortString",
      "type": "error"
    },
    {
      "inputs": [
        {
          "internalType": "address",
          "name": "owner",
          "type": "address"
        }
      ],
      "name": "OwnableInvalidOwner",
      "type": "error"
    },
    {
      "inputs": [
        {
          "internalType": "address",
          "name": "account",
          "type": "address"
        }
      ],
      "name": "OwnableUnauthorizedAccount",
      "type": "error"
    },
    {
      "inputs": [
        {
          "internalType": "string",
          "name": "str",
          "type": "string"
        }
      ],
      "name": "StringTooLong",
      "type": "error"
    },
    {
      "anonymous": false,
      "inputs": [
        {
          "indexed": true,
          "internalType": "bytes32",
          "name": "orgId",
          "type": "bytes32"
        },
        {
          "indexed": true,
          "internalType": "bytes32",
          "name": "batchId",
          "type": "bytes32"
        },
        {
          "indexed": false,
          "internalType": "bytes32",
          "name": "dataHash",
          "type": "bytes32"
        },
        {
          "indexed": true,
          "internalType": "address",
          "name": "submitter",
          "type": "address"
        }
      ],
      "name": "AnchorRecorded",
      "type": "event"
    },
    {
      "anonymous": false,
      "inputs": [],
      "name": "EIP712DomainChanged",
      "type": "event"
    },
    {
      "anonymous": false,
      "inputs": [
        {
          "indexed": true,
          "internalType": "address",
          "name": "operator",
          "type": "address"
        },
        {
          "indexed": false,
          "internalType": "bool",
          "name": "status",
          "type": "bool"
        }
      ],
      "name": "OperatorRegistered",
      "type": "event"
    },
    {
      "anonymous": false,
      "inputs": [
        {
          "indexed": true,
          "internalType": "bytes32",
          "name": "orgId",
          "type": "bytes32"
        },
        {
          "indexed": true,
          "internalType": "address",
          "name": "owner",
          "type": "address"
        }
      ],
      "name": "OrgRegistered",
      "type": "event"
    },
    {
      "anonymous": false,
      "inputs": [
        {
          "indexed": true,
          "internalType": "bytes32",
          "name": "orgId",
          "type": "bytes32"
        },
        {
          "indexed": false,
          "internalType": "bool",
          "name": "status",
          "type": "bool"
        },
        {
          "indexed": true,
          "internalType": "address",
          "name": "verifier",
          "type": "address"
        },
        {
          "indexed": false,
          "internalType": "bytes32",
          "name": "metadataHash",
          "type": "bytes32"
        },
        {
          "indexed": false,
          "internalType": "string",
          "name": "verificationNote",
          "type": "string"
        }
      ],
      "name": "OrgVerified",
      "type": "event"
    },
    {
      "anonymous": false,
      "inputs": [
        {
          "indexed": true,
          "internalType": "address",
          "name": "previousOwner",
          "type": "address"
        },
        {
          "indexed": true,
          "internalType": "address",
          "name": "newOwner",
          "type": "address"
        }
      ],
      "name": "OwnershipTransferred",
      "type": "event"
    },
    {
      "anonymous": false,
      "inputs": [
        {
          "indexed": true,
          "internalType": "bytes32",
          "name": "orgId",
          "type": "bytes32"
        },
        {
          "indexed": true,
          "internalType": "address",
          "name": "worker",
          "type": "address"
        },
        {
          "indexed": false,
          "internalType": "bool",
          "name": "status",
          "type": "bool"
        }
      ],
      "name": "WorkerAuthorized",
      "type": "event"
    },
    {
      "inputs": [
        {
          "internalType": "bytes32",
          "name": "_orgId",
          "type": "bytes32"
        },
        {
          "internalType": "address",
          "name": "_worker",
          "type": "address"
        },
        {
          "internalType": "bool",
          "name": "_status",
          "type": "bool"
        }
      ],
      "name": "authorizeWorker",
      "outputs": [],
      "stateMutability": "nonpayable",
      "type": "function"
    },
    {
      "inputs": [
        {
          "internalType": "bytes32",
          "name": "",
          "type": "bytes32"
        },
        {
          "internalType": "address",
          "name": "",
          "type": "address"
        }
      ],
      "name": "authorizedWorkers",
      "outputs": [
        {
          "internalType": "bool",
          "name": "",
          "type": "bool"
        }
      ],
      "stateMutability": "view",
      "type": "function"
    },
    {
      "inputs": [
        {
          "internalType": "bytes32",
          "name": "_orgId",
          "type": "bytes32"
        },
        {
          "internalType": "bytes32[]",
          "name": "_batchIds",
          "type": "bytes32[]"
        },
        {
          "internalType": "bytes32[]",
          "name": "_dataHashes",
          "type": "bytes32[]"
        }
      ],
      "name": "computeBatchHash",
      "outputs": [
        {
          "internalType": "bytes32",
          "name": "",
          "type": "bytes32"
        }
      ],
      "stateMutability": "pure",
      "type": "function"
    },
    {
      "inputs": [],
      "name": "eip712Domain",
      "outputs": [
        {
          "internalType": "bytes1",
          "name": "fields",
          "type": "bytes1"
        },
        {
          "internalType": "string",
          "name": "name",
          "type": "string"
        },
        {
          "internalType": "string",
          "name": "version",
          "type": "string"
        },
        {
          "internalType": "uint256",
          "name": "chainId",
          "type": "uint256"
        },
        {
          "internalType": "address",
          "name": "verifyingContract",
          "type": "address"
        },
        {
          "internalType": "bytes32",
          "name": "salt",
          "type": "bytes32"
        },
        {
          "internalType": "uint256[]",
          "name": "extensions",
          "type": "uint256[]"
        }
      ],
      "stateMutability": "view",
      "type": "function"
    },
    {
      "inputs": [
        {
          "internalType": "bytes32",
          "name": "_orgId",
          "type": "bytes32"
        }
      ],
      "name": "getOrgVerificationInfo",
      "outputs": [
        {
          "components": [
            {
              "internalType": "bool",
              "name": "isVerified",
              "type": "bool"
            },
            {
              "internalType": "address",
              "name": "verifier",
              "type": "address"
            },
            {
              "internalType": "uint256",
              "name": "verifiedAt",
              "type": "uint256"
            },
            {
              "internalType": "bytes32",
              "name": "metadataHash",
              "type": "bytes32"
            },
            {
              "internalType": "string",
              "name": "verificationNote",
              "type": "string"
            }
          ],
          "internalType": "struct VNCXMasterAnchor.OrgVerificationInfo",
          "name": "",
          "type": "tuple"
        }
      ],
      "stateMutability": "view",
      "type": "function"
    },
    {
      "inputs": [
        {
          "internalType": "bytes32",
          "name": "_orgId",
          "type": "bytes32"
        }
      ],
      "name": "isOrgVerified",
      "outputs": [
        {
          "internalType": "bool",
          "name": "",
          "type": "bool"
        }
      ],
      "stateMutability": "view",
      "type": "function"
    },
    {
      "inputs": [
        {
          "internalType": "address",
          "name": "",
          "type": "address"
        }
      ],
      "name": "operators",
      "outputs": [
        {
          "internalType": "bool",
          "name": "",
          "type": "bool"
        }
      ],
      "stateMutability": "view",
      "type": "function"
    },
    {
      "inputs": [
        {
          "internalType": "bytes32",
          "name": "",
          "type": "bytes32"
        }
      ],
      "name": "orgOwners",
      "outputs": [
        {
          "internalType": "address",
          "name": "",
          "type": "address"
        }
      ],
      "stateMutability": "view",
      "type": "function"
    },
    {
      "inputs": [
        {
          "internalType": "bytes32",
          "name": "",
          "type": "bytes32"
        }
      ],
      "name": "orgVerificationInfo",
      "outputs": [
        {
          "internalType": "bool",
          "name": "isVerified",
          "type": "bool"
        },
        {
          "internalType": "address",
          "name": "verifier",
          "type": "address"
        },
        {
          "internalType": "uint256",
          "name": "verifiedAt",
          "type": "uint256"
        },
        {
          "internalType": "bytes32",
          "name": "metadataHash",
          "type": "bytes32"
        },
        {
          "internalType": "string",
          "name": "verificationNote",
          "type": "string"
        }
      ],
      "stateMutability": "view",
      "type": "function"
    },
    {
      "inputs": [],
      "name": "owner",
      "outputs": [
        {
          "internalType": "address",
          "name": "",
          "type": "address"
        }
      ],
      "stateMutability": "view",
      "type": "function"
    },
    {
      "inputs": [
        {
          "internalType": "bytes32",
          "name": "",
          "type": "bytes32"
        }
      ],
      "name": "processedHashes",
      "outputs": [
        {
          "internalType": "bool",
          "name": "",
          "type": "bool"
        }
      ],
      "stateMutability": "view",
      "type": "function"
    },
    {
      "inputs": [
        {
          "internalType": "bytes32",
          "name": "_orgId",
          "type": "bytes32"
        },
        {
          "internalType": "bytes32[]",
          "name": "_batchIds",
          "type": "bytes32[]"
        },
        {
          "internalType": "bytes32[]",
          "name": "_dataHashes",
          "type": "bytes32[]"
        }
      ],
      "name": "recordOrgBatch",
      "outputs": [],
      "stateMutability": "nonpayable",
      "type": "function"
    },
    {
      "inputs": [
        {
          "internalType": "bytes32",
          "name": "_orgId",
          "type": "bytes32"
        },
        {
          "internalType": "bytes32[]",
          "name": "_batchIds",
          "type": "bytes32[]"
        },
        {
          "internalType": "bytes32[]",
          "name": "_dataHashes",
          "type": "bytes32[]"
        },
        {
          "internalType": "bytes32",
          "name": "_batchHash",
          "type": "bytes32"
        },
        {
          "internalType": "bytes32",
          "name": "_r",
          "type": "bytes32"
        },
        {
          "internalType": "bytes32",
          "name": "_s",
          "type": "bytes32"
        },
        {
          "internalType": "uint8",
          "name": "_v",
          "type": "uint8"
        }
      ],
      "name": "recordRelayedBatch",
      "outputs": [],
      "stateMutability": "nonpayable",
      "type": "function"
    },
    {
      "inputs": [
        {
          "internalType": "address",
          "name": "_operator",
          "type": "address"
        },
        {
          "internalType": "bool",
          "name": "_status",
          "type": "bool"
        }
      ],
      "name": "registerOperator",
      "outputs": [],
      "stateMutability": "nonpayable",
      "type": "function"
    },
    {
      "inputs": [
        {
          "internalType": "bytes32",
          "name": "_orgId",
          "type": "bytes32"
        },
        {
          "internalType": "address",
          "name": "_owner",
          "type": "address"
        }
      ],
      "name": "registerOrg",
      "outputs": [],
      "stateMutability": "nonpayable",
      "type": "function"
    },
    {
      "inputs": [],
      "name": "renounceOwnership",
      "outputs": [],
      "stateMutability": "nonpayable",
      "type": "function"
    },
    {
      "inputs": [
        {
          "internalType": "address",
          "name": "newOwner",
          "type": "address"
        }
      ],
      "name": "transferOwnership",
      "outputs": [],
      "stateMutability": "nonpayable",
      "type": "function"
    },
    {
      "inputs": [
        {
          "internalType": "bytes32",
          "name": "_dataHash",
          "type": "bytes32"
        }
      ],
      "name": "verifyHash",
      "outputs": [
        {
          "internalType": "bool",
          "name": "",
          "type": "bool"
        }
      ],
      "stateMutability": "view",
      "type": "function"
    },
    {
      "inputs": [
        {
          "internalType": "bytes32",
          "name": "_orgId",
          "type": "bytes32"
        },
        {
          "internalType": "bool",
          "name": "_status",
          "type": "bool"
        },
        {
          "internalType": "bytes32",
          "name": "_metadataHash",
          "type": "bytes32"
        },
        {
          "internalType": "string",
          "name": "_verificationNote",
          "type": "string"
        }
      ],
      "name": "verifyOrg",
      "outputs": [],
      "stateMutability": "nonpayable",
      "type": "function"
    },
    {
      "inputs": [
        {
          "internalType": "bytes32",
          "name": "_orgId",
          "type": "bytes32"
        },
        {
          "internalType": "bytes32",
          "name": "_claimedMetadataHash",
          "type": "bytes32"
        }
      ],
      "name": "verifyOrgMetadata",
      "outputs": [
        {
          "internalType": "bool",
          "name": "",
          "type": "bool"
        }
      ],
      "stateMutability": "view",
      "type": "function"
    }
  ],
  "bytecode": "0x610160604052348015610010575f5ffd5b50604080518082018252601081526f2b2721ac26b0b9ba32b920b731b437b960811b602080830191909152825180840190935260018352603160f81b9083015290338061007757604051631e4fbdf760e01b81525f60048201526024015b60405180910390fd5b61008081610135565b5061008c826001610184565b6101205261009b816002610184565b61014052815160208084019190912060e052815190820120610100524660a05261012760e05161010051604080517f8b73c3c69bb8fe3d512ecc4cf759cc79239f7b179b0ffacaa9a75d522b39400f60208201529081019290925260608201524660808201523060a08201525f9060c00160405160208183030381529060405280519060200120905090565b60805250503060c05261039d565b5f80546001600160a01b038381166001600160a01b0319831681178455604051919092169283917f8be0079c531659141344cd1fd0a4f28419497f9722a3daafe3b4186f6b6457e09190a35050565b5f60208351101561019f57610198836101b6565b90506101b0565b816101aa848261028b565b5060ff90505b92915050565b5f5f829050601f815111156101e0578260405163305a27a960e01b815260040161006e9190610345565b80516101eb8261037a565b179392505050565b634e487b7160e01b5f52604160045260245ffd5b600181811c9082168061021b57607f821691505b60208210810361023957634e487b7160e01b5f52602260045260245ffd5b50919050565b601f82111561028657805f5260205f20601f840160051c810160208510156102645750805b601f840160051c820191505b81811015610283575f8155600101610270565b50505b505050565b81516001600160401b038111156102a4576102a46101f3565b6102b8816102b28454610207565b8461023f565b6020601f8211600181146102ea575f83156102d35750848201515b5f19600385901b1c1916600184901b178455610283565b5f84815260208120601f198516915b8281101561031957878501518255602094850194600190920191016102f9565b508482101561033657868401515f19600387901b60f8161c191681555b50505050600190811b01905550565b602081525f82518060208401528060208501604085015e5f604082850101526040601f19601f83011684010191505092915050565b80516020808301519190811015610239575f1960209190910360031b1b16919050565b60805160a05160c05160e051610100516101205161014051611b1d6103ee5f395f61109401525f61106201525f61119301525f61116b01525f6110c601525f6110f001525f61111a0152611b1d5ff3fe608060405234801561000f575f5ffd5b5060043610610127575f3560e01c8063790561fb116100a95780639e81a8a41161006e5780639e81a8a4146102e05780639f404395146102f3578063b073055114610306578063ef020f4a1461032e578063f2fde38b14610350575f5ffd5b8063790561fb1461024a57806384b0196e1461026a578063883d31e9146102855780638da5cb5b146102a9578063928c9163146102cd575f5ffd5b806326fea9c7116100ef57806326fea9c7146101bf5780632b5fbddd146101e15780634a863deb146101f45780635e67f4f614610215578063715018a614610242575f5ffd5b806303e9b2d21461012b57806307d9c534146101405780630eea102c1461017757806313e7c9d81461018a578063162cf96e146101ac575b5f5ffd5b61013e61013936600461149e565b610363565b005b61016261014e3660046114cf565b60076020525f908152604090205460ff1681565b60405190151581526020015b60405180910390f35b61013e61018536600461152e565b61041c565b6101626101983660046115d9565b60066020525f908152604090205460ff1681565b61013e6101ba3660046115f9565b6105cd565b6101626101cd3660046114cf565b5f9081526004602052604090205460ff1690565b61013e6101ef366004611687565b6107df565b610207610202366004611687565b610885565b60405190815260200161016e565b610162610223366004611700565b600560209081525f928352604080842090915290825290205460ff1681565b61013e6108c0565b61025d6102583660046114cf565b6108d3565b60405161016e919061174f565b6102726109f9565b60405161016e979695949392919061179b565b6102986102933660046114cf565b610a3b565b60405161016e959493929190611831565b5f546001600160a01b03165b6040516001600160a01b03909116815260200161016e565b61013e6102db366004611870565b610afb565b6101626102ee3660046118a9565b610bd5565b61013e610301366004611700565b610cd9565b6102b56103143660046114cf565b60036020525f90815260409020546001600160a01b031681565b61016261033c3660046114cf565b5f9081526007602052604090205460ff1690565b61013e61035e3660046115d9565b610deb565b61036b610e28565b6001600160a01b0382166103be5760405162461bcd60e51b8152602060048201526015602482015274564e43583a20496e76616c6964206164647265737360581b60448201526064015b60405180910390fd5b6001600160a01b0382165f81815260066020908152604091829020805460ff191685151590811790915591519182527ffd9335bf27ee9330341b5d87eaebf6f82bc1ea16bebbcc12c371e180c671f7b4910160405180910390a25050565b5f89898989896040516020016104369594939291906118f9565b60405160208183030381529060405280519060200120905084811461049d5760405162461bcd60e51b815260206004820152601960248201527f564e43583a2042617463682068617368206d69736d617463680000000000000060448201526064016103b5565b604080517fa9c9a78b12c688d0bb6dbb29014dd152cad99d05ece2cf69e24a69b57e37275c60208201529081018b9052606081018690525f906080016040516020818303038152906040528051906020012090505f6104fb82610e54565b90505f61050a82868989610e80565b5f8e8152600360205260409020549091506001600160a01b038083169116148061055557505f8d81526005602090815260408083206001600160a01b038516845290915290205460ff165b6105b15760405162461bcd60e51b815260206004820152602760248201527f564e43583a20496e76616c6964204261746368205369676e6174757265206f726044820152661029b4b3b732b960c91b60648201526084016103b5565b6105be8d8d8d8d8d610eac565b50505050505050505050505050565b5f546001600160a01b03163314806105f35750335f9081526006602052604090205460ff165b61064f5760405162461bcd60e51b815260206004820152602760248201527f564e43583a204f6e6c79204f776e6572206f72204f70657261746f722063616e6044820152662076657269667960c81b60648201526084016103b5565b5f858152600360205260409020546001600160a01b03166106b25760405162461bcd60e51b815260206004820152601860248201527f564e43583a204f7267206e6f742072656769737465726564000000000000000060448201526064016103b5565b6040518060a001604052808515158152602001336001600160a01b0316815260200142815260200184815260200183838080601f0160208091040260200160405190810160405280939291908181526020018383808284375f9201829052509390945250508781526004602090815260409182902084518154928601516001600160a81b0319909316901515610100600160a81b031916176101006001600160a01b0390931692909202919091178155908301516001820155606083015160028201556080830151909150600382019061078c90826119c6565b50905050336001600160a01b0316857ff4a3f113d2b571deb8cf07f134539c43bf42857cc76f111f4460d0089d995a80868686866040516107d09493929190611a81565b60405180910390a35050505050565b5f858152600360205260409020546001600160a01b031633148061081b57505f85815260056020908152604080832033845290915290205460ff165b6108715760405162461bcd60e51b815260206004820152602160248201527f564e43583a204e6f7420617574686f72697a656420666f722074686973204f726044820152606760f81b60648201526084016103b5565b61087e8585858585610eac565b5050505050565b5f858585858560405160200161089f9594939291906118f9565b60405160208183030381529060405280519060200120905095945050505050565b6108c8610e28565b6108d15f61100c565b565b61090c6040518060a001604052805f151581526020015f6001600160a01b031681526020015f81526020015f8152602001606081525090565b5f82815260046020908152604091829020825160a081018452815460ff81161515825261010090046001600160a01b0316928101929092526001810154928201929092526002820154606082015260038201805491929160808401919061097290611945565b80601f016020809104026020016040519081016040528092919081815260200182805461099e90611945565b80156109e95780601f106109c0576101008083540402835291602001916109e9565b820191905f5260205f20905b8154815290600101906020018083116109cc57829003601f168201915b5050505050815250509050919050565b5f6060805f5f5f6060610a0a61105b565b610a1261108d565b604080515f80825260208201909252600f60f81b9b939a50919850469750309650945092509050565b60046020525f9081526040902080546001820154600283015460038401805460ff8516956101009095046001600160a01b0316949190610a7a90611945565b80601f0160208091040260200160405190810160405280929190818152602001828054610aa690611945565b8015610af15780601f10610ac857610100808354040283529160200191610af1565b820191905f5260205f20905b815481529060010190602001808311610ad457829003601f168201915b5050505050905085565b5f838152600360205260409020546001600160a01b03163314610b6b5760405162461bcd60e51b815260206004820152602260248201527f564e43583a204f6e6c79204f7267204f776e65722063616e20617574686f72696044820152617a6560f01b60648201526084016103b5565b5f8381526005602090815260408083206001600160a01b03861680855290835292819020805460ff1916851515908117909155905190815285917f39829f7615ede64e1d8cb3d320383e26ae7bbdf0170cfb04ae71bb11a7d08b01910160405180910390a3505050565b5f828152600460209081526040808320815160a081018352815460ff81161515825261010090046001600160a01b03169381019390935260018101549183019190915260028101546060830152600381018054849392916080840191610c3a90611945565b80601f0160208091040260200160405190810160405280929190818152602001828054610c6690611945565b8015610cb15780601f10610c8857610100808354040283529160200191610cb1565b820191905f5260205f20905b815481529060010190602001808311610c9457829003601f168201915b5050505050815250509050805f01518015610ccf5750828160600151145b9150505b92915050565b610ce1610e28565b5f828152600360205260409020546001600160a01b031615610d455760405162461bcd60e51b815260206004820152601c60248201527f564e43583a204f726720616c726561647920726567697374657265640000000060448201526064016103b5565b6001600160a01b038116610d935760405162461bcd60e51b8152602060048201526015602482015274564e43583a20496e76616c6964206164647265737360581b60448201526064016103b5565b5f8281526003602052604080822080546001600160a01b0319166001600160a01b0385169081179091559051909184917f7d53b93d471795182329253ee77657987f08c389449dab4ff1cf4b22b16c087a9190a35050565b610df3610e28565b6001600160a01b038116610e1c57604051631e4fbdf760e01b81525f60048201526024016103b5565b610e258161100c565b50565b5f546001600160a01b031633146108d15760405163118cdaa760e01b81523360048201526024016103b5565b5f610cd3610e606110ba565b8360405161190160f01b8152600281019290925260228201526042902090565b5f5f5f5f610e90888888886111e3565b925092509250610ea082826112ab565b50909695505050505050565b8080610eee5760405162461bcd60e51b81526020600482015260116024820152700ac9c86b074408adae0e8f240c4c2e8c6d607b1b60448201526064016103b5565b808414610f345760405162461bcd60e51b81526020600482015260146024820152730ac9c86b0744082e4e4c2f240dad2e6dac2e8c6d60631b60448201526064016103b5565b5f5b81811015611003575f848483818110610f5157610f51611abf565b602090810292909201355f81815260079093526040909220549192505060ff16610ffa575f818152600760205260409020805460ff1916600117905533878784818110610fa057610fa0611abf565b90506020020135897f3081f4b7568596bc79c4df042719225952380bda22234119258edb24d6b138c5888887818110610fdb57610fdb611abf565b90506020020135604051610ff191815260200190565b60405180910390a45b50600101610f36565b50505050505050565b5f80546001600160a01b038381166001600160a01b0319831681178455604051919092169283917f8be0079c531659141344cd1fd0a4f28419497f9722a3daafe3b4186f6b6457e09190a35050565b60606110887f00000000000000000000000000000000000000000000000000000000000000006001611367565b905090565b60606110887f00000000000000000000000000000000000000000000000000000000000000006002611367565b5f306001600160a01b037f00000000000000000000000000000000000000000000000000000000000000001614801561111257507f000000000000000000000000000000000000000000000000000000000000000046145b1561113c57507f000000000000000000000000000000000000000000000000000000000000000090565b611088604080517f8b73c3c69bb8fe3d512ecc4cf759cc79239f7b179b0ffacaa9a75d522b39400f60208201527f0000000000000000000000000000000000000000000000000000000000000000918101919091527f000000000000000000000000000000000000000000000000000000000000000060608201524660808201523060a08201525f9060c00160405160208183030381529060405280519060200120905090565b5f80807f7fffffffffffffffffffffffffffffff5d576e7357a4501ddfe92f46681b20a084111561121c57505f915060039050826112a1565b604080515f808252602082018084528a905260ff891692820192909252606081018790526080810186905260019060a0016020604051602081039080840390855afa15801561126d573d5f5f3e3d5ffd5b5050604051601f1901519150506001600160a01b03811661129857505f9250600191508290506112a1565b92505f91508190505b9450945094915050565b5f8260038111156112be576112be611ad3565b036112c7575050565b60018260038111156112db576112db611ad3565b036112f95760405163f645eedf60e01b815260040160405180910390fd5b600282600381111561130d5761130d611ad3565b0361132e5760405163fce698f760e01b8152600481018290526024016103b5565b600382600381111561134257611342611ad3565b03611363576040516335e2f38360e21b8152600481018290526024016103b5565b5050565b606060ff83146113815761137a83611410565b9050610cd3565b81805461138d90611945565b80601f01602080910402602001604051908101604052809291908181526020018280546113b990611945565b80156114045780601f106113db57610100808354040283529160200191611404565b820191905f5260205f20905b8154815290600101906020018083116113e757829003601f168201915b50505050509050610cd3565b60605f61141c8361144d565b6040805160208082528183019092529192505f91906020820181803683375050509182525060208101929092525090565b5f60ff8216601f811115610cd357604051632cd44ac360e21b815260040160405180910390fd5b80356001600160a01b038116811461148a575f5ffd5b919050565b8035801515811461148a575f5ffd5b5f5f604083850312156114af575f5ffd5b6114b883611474565b91506114c66020840161148f565b90509250929050565b5f602082840312156114df575f5ffd5b5035919050565b5f5f83601f8401126114f6575f5ffd5b50813567ffffffffffffffff81111561150d575f5ffd5b6020830191508360208260051b8501011115611527575f5ffd5b9250929050565b5f5f5f5f5f5f5f5f5f60e08a8c031215611546575f5ffd5b8935985060208a013567ffffffffffffffff811115611563575f5ffd5b61156f8c828d016114e6565b90995097505060408a013567ffffffffffffffff81111561158e575f5ffd5b61159a8c828d016114e6565b90975095505060608a0135935060808a0135925060a08a0135915060c08a013560ff811681146115c8575f5ffd5b809150509295985092959850929598565b5f602082840312156115e9575f5ffd5b6115f282611474565b9392505050565b5f5f5f5f5f6080868803121561160d575f5ffd5b8535945061161d6020870161148f565b935060408601359250606086013567ffffffffffffffff81111561163f575f5ffd5b8601601f8101881361164f575f5ffd5b803567ffffffffffffffff811115611665575f5ffd5b886020828401011115611676575f5ffd5b959894975092955050506020019190565b5f5f5f5f5f6060868803121561169b575f5ffd5b85359450602086013567ffffffffffffffff8111156116b8575f5ffd5b6116c4888289016114e6565b909550935050604086013567ffffffffffffffff8111156116e3575f5ffd5b6116ef888289016114e6565b969995985093965092949392505050565b5f5f60408385031215611711575f5ffd5b823591506114c660208401611474565b5f81518084528060208401602086015e5f602082860101526020601f19601f83011685010191505092915050565b6020815281511515602082015260018060a01b03602083015116604082015260408201516060820152606082015160808201525f608083015160a080840152610ccf60c0840182611721565b60ff60f81b8816815260e060208201525f6117b960e0830189611721565b82810360408401526117cb8189611721565b606084018890526001600160a01b038716608085015260a0840186905283810360c0850152845180825260208087019350909101905f5b81811015611820578351835260209384019390920191600101611802565b50909b9a5050505050505050505050565b851515815260018060a01b038516602082015283604082015282606082015260a060808201525f61186560a0830184611721565b979650505050505050565b5f5f5f60608486031215611882575f5ffd5b8335925061189260208501611474565b91506118a06040850161148f565b90509250925092565b5f5f604083850312156118ba575f5ffd5b50508035926020909101359150565b8183525f6001600160fb1b038311156118e0575f5ffd5b8260051b80836020870137939093016020019392505050565b858152606060208201525f6119126060830186886118c9565b82810360408401526119258185876118c9565b98975050505050505050565b634e487b7160e01b5f52604160045260245ffd5b600181811c9082168061195957607f821691505b60208210810361197757634e487b7160e01b5f52602260045260245ffd5b50919050565b601f8211156119c157805f5260205f20601f840160051c810160208510156119a25750805b601f840160051c820191505b8181101561087e575f81556001016119ae565b505050565b815167ffffffffffffffff8111156119e0576119e0611931565b6119f4816119ee8454611945565b8461197d565b6020601f821160018114611a26575f8315611a0f5750848201515b5f19600385901b1c1916600184901b17845561087e565b5f84815260208120601f198516915b82811015611a555787850151825560209485019460019092019101611a35565b5084821015611a7257868401515f19600387901b60f8161c191681555b50505050600190811b01905550565b841515815283602082015260606040820152816060820152818360808301375f818301608090810191909152601f909201601f191601019392505050565b634e487b7160e01b5f52603260045260245ffd5b634e487b7160e01b5f52602160045260245ffdfea2646970667358221220fd6649fa64e3abec50bf1dbd5a7471ca40ce3b4215d40ea1f7534bd77429342464736f6c634300081c0033",
  "linkReferences": {},
  "deployedLinkReferences": {},
  "immutableReferences": {
    "2366": [
      {
        "length": 32,
        "start": 4378
      }
    ],
    "2368": [
      {
        "length": 32,
        "start": 4336
      }
    ],
    "2370": [
      {
        "length": 32,
        "start": 4294
      }
    ],
    "2372": [
      {
        "length": 32,
        "start": 4459
      }
    ],
    "2374": [
      {
        "length": 32,
        "start": 4499
      }
    ],
    "2377": [
      {
        "length": 32,
        "start": 4194
      }
    ],
    "2380": [
      {
        "length": 32,
        "start": 4244
      }
    ]
  },
  "inputSourceName": "project/contracts/VNCXMasterAnchor.sol",
  "buildInfoId": "solc-0_8_28-da5b4a2c5b01ef25d42d339ceafd481026dec59c"
}